:020000040800F2
:1000000000000220611B00085F1B00085D1B000848
:100010005D1B00085D1B00085D1B00080000000060
:100020000000000000000000000000005F1B00084E
:100030005F1B0008000000005F1B0008BD020008F5
:100040005D1B00085D1B00085D1B00085D1B0008B0
:100050005D1B00085D1B00085D1B00085D1B0008A0
:100060005D1B00085D1B00085D1B00085D1B000890
:100070005D1B00085D1B00085D1B00085D1B000880
:100080005D1B00085D1B00085D1B00085D1B000870
:100090005D1B00085D1B00085D1B00085D1B000860
:1000A0005D1B00085D1B00085D1B00085D1B000850
:1000B0005D1B00085D1B00085D1B00085D1B000840
:1000C0005D1B00085D1B00085D1B00085D1B000830
:1000D0005D1B00085D1B00085D1B00085D1B000820
:1000E0005D1B00085D1B00085D1B00085D1B000810
:1000F0005D1B00085D1B00085D1B00085D1B000800
:100100005D1B00085D1B00085D1B00085D1B0008EF
:100110005D1B00085D1B00085D1B00085D1B0008DF
:100120005D1B00085D1B00085D1B00085D1B0008CF
:100130005D1B00085D1B00085D1B00085D1B0008BF
:100140005D1B00085D1B00085D1B000825080008FA
:100150005D1B00085D1B00085D1B00085D1B00089F
:100160005D1B00085D1B00085D1B00085D1B00088F
:100170005D1B00085D1B00085D1B00085D1B00087F
:100180005D1B00085D1B00085D1B00085D1B00086F
:100190005D1B00085D1B00085D1B00085D1B00085F
:1001A0005D1B00085D1B00085D1B0008022901D1D2
:1001B00000F040BB7047000010B5084C237813F0E6
:1001C000FD0F02D04FF0FF3010BDC307FAD500F08D
:1001D000B3FB0028F6DB02236370F5E7580000202C
:1001E00010B5064C606000F0C9FBFFF7E5FF002882
:1001F00002DA6368002BF6D110BD00BFE8070020CB
:1002000008B5FFF7EDFFA0F120035842584108BDA3
:10021000034B1B78022B01D100F098BB704700BF45
:1002200058000020054B596810B54A1C9C68D2B292
:1002300094421EBFC9185A60087310BD58000020B0
:10024000064AD2E901138B421FBFD1180133DBB23A
:10025000087B14BF93604FF0FF30704758000020B8
:1002600038B5124C236801331FD0114D114B2A6849
:100270009A421AD9104B9B6803F1006303F580433F
:100280009A4212D200F0D4FB00F0A6FB00F034FB3F
:1002900000F0AAFB00F074FB204600F0CDFB2368C1
:1002A0002A6883F308881047FEE738BD004000083D
:1002B00004400008FF3F00080C0000200D4A10B564
:1002C0000023144652F8231021B152F823100139AB
:1002D00042F823100133042BF4D1074B93F80C316F
:1002E00033B9A36823B9022000F070FC3223A36065
:1002F00010BD00BFE807002058000020024BD86066
:10030000DA68002AFCD17047E80700202DE9F04F99
:10031000BE4DBF4FDFF810A38FB000242C700294A5
:100320008146BE68B84600F043FBB9F1000F01D02A
:10033000CAF8009085F80C41CAF808404FF0FF3722
:10034000012000F037FCB9F1000F04D0DAF80030DA
:10035000002B00F0EF810020FFF742FF0390039B8A
:10036000002BF0DB012000F019FC039B213B102B3C
:10037000E6D801A252F823F0BD030008EF030008FD
:100380005704000841030008410300084103000826
:10039000CD040008410300086F0500082D06000881
:1003A0006F060008BD06000841030008E1060008CA
:1003B0004103000811070008D10300080220FFF7DD
:1003C0001FFF002800F0D281029B43F0010302933B
:1003D0002B780BB96B782B700EA841F2120320F822
:1003E000143D0221FFF714FF4FF00009A8E74FF476
:1003F0007A70FFF7F5FE041EC0F2B8810220FFF705
:10040000FFFE002800F0B281601E042800F2AE81D9
:10041000DFE800F0030B0E1114007E480421FFF703
:10042000F7FE029B43F00203D1E704217848F6E788
:1004300004217948F3E704217848F0E71C2420469A
:1004400000F010FB04340990042109A8FFF7E0FE36
:100450002C2CF4D1E5E70220FFF7D2FE002800F0B3
:100460008581029B03F00303032B40F07F8101236E
:10047000022085F80C3100F091FB00F0DBFA00243B
:10048000204600F0DFFA064698B9022085F80C01F4
:1004900000F090FB3446D8F80830A3420ED8029BF7
:1004A00043F004030293002385F80C31CAF80830A6
:1004B0008EE7204600F0E0FA0134E1E7204600F044
:1004C000D1FA013040F048810434E4E73220FFF7EC
:1004D00087FEB0F1000BC0F249811BF0030440F02D
:1004E0004581D8F808100BEB06028A4200F23E81E3
:1004F000BBF5807F00F23A81494A5C451BD1C82098
:10050000FFF77EFE002800F031812EB94FF0FF3357
:10051000D5F81071C5F8103124F0030404EB060B74
:1005200034463F4E361B5C4514D1029B43F0080312
:10053000029326464CE74FF47A700192FFF750FE83
:10054000039003990029C0F21181019A0399A154E3
:100550000134D2E73159204600F07EFA204600F0FF
:1005600081FA3259904240F0F7800434DBE70220F0
:10057000FFF746FE002800F0F9800024A14617E0AE
:1005800024BB791C22D00997D5F81432002B3BD01C
:10059000002209A9535C83EA0903DBB205EB83035C
:1005A0000132D3F81032042A83EA1929F2D1043433
:1005B000D8F80830A342E3D80EA8042140F8289DBB
:1005C000FFF726FE029B43F0100300E7204600F0F1
:1005D00049FA0990D8E702F0010C5208BCF1000F6B
:1005E00007D082F06D4282F4380282F4034282F036
:1005F00020020139EFD140F823200133B3F5807F89
:10060000C6D01A460821E6E70648FAE75800002057
:100610000C000020DC230008100000201400002043
:100620006801002068020020E807002000240DF186
:10063000240B6420FFF7D4FD0028C0F2978004F853
:100640000B000134042CF4D10220DDF824B0FFF7B4
:10065000D7FD002800F08A80584600F031FA0EAB32
:10066000214643F8240D1846FFF7D2FDB0E60024DA
:100670000DF1240B6420FFF7B3FD002876DB04F8AE
:100680000B000134042CF5D1099B01930220FFF7E4
:10069000B7FD00286AD0019B9A0767D1082B65D85F
:1006A000184600F075FA0EAB214643F8200D1846A7
:1006B000FFF7AEFD029B43F0400388E60220FFF700
:1006C0009FFD002852D000F009FA0EAB042143F838
:1006D0001C0D1846FFF79CFD029B43F0800376E655
:1006E0000220FFF78DFD002840D009A9142000F05A
:1006F000FBF904460EA8042140F8184DFFF788FDC9
:10070000214609A8FFF784FD029B43F480735EE64F
:100710004FF47A70FFF774FD40B37B1C0DD10EA827
:1007200041F2120320F8143D0221FFF771FD64200D
:10073000FFF7E4FD0FB0BDE8F08F029B03F01B0351
:100740001B2B13D13946002000F086F9002000F061
:1007500089F98742E3D034460EA841F2121320F8FB
:10076000143D0221FFF754FD2646E9E50EA841F2AB
:10077000123320F8143D0221FFF74AFD00230293B3
:10078000DEE500BF497821290BD022290BD0202992
:1007900001D0002070471888062894BF002001204F
:1007A0007047024B13600120704700BFE023000830
:1007B00037B5104B00930446002540230222012147
:1007C00000F0FEFC2046009540230222822100F02A
:1007D000F7FC2046009510230322832100F0F0FC53
:1007E000054B7F222121204603B0BDE8304001F0B7
:1007F0008BB800BFFD0700088507000830B591B031
:1008000040236A46012100F003FD00240546AC4266
:1008100001D311B030BD1DF80400FFF703FD013412
:10082000F5E70000024B186808B100F0BFBC704744
:10083000680600201FB501212548264C00F062FC07
:100840008021254800F05EFC4FF4C05300220221B5
:10085000224800F079FB4FF4C0520A211F4800F0F3
:10086000AEFB1F4A1F48136843F4001313601E4B6E
:100870001B68B3F5005F01BF4FF0A042136843F05F
:10088000C00313608023194A0293231D019303239D
:1008900002F10D010093164B00F060FC1549206039
:1008A00000F0F0FE104B1B68B3F5005F0AD10C4A54
:1008B000136843F404131360D2F8CC3723F0020317
:1008C000C2F8CC37432004B0BDE8104001F0C6B9EF
:1008D00030380240680600203438024000000240F0
:1008E00038000050C02500083C000050E7230008F5
:1008F00000000020B107000810B50C4C432001F0A7
:10090000BBF9206820B1012100F054FC00232360D2
:100910000022114606484FF4C05300F015FB802119
:100920000448BDE8104000F0F1BB00BF680600209D
:100930000000024034380240034B1B680BB1FFF744
:100940007FBC4FF0FF3070476806002070B50A4D3D
:100950002A6806460C4662B970BD402C234628BF63
:10096000402332469BB28221286800F049FC241AB9
:100970000644002CF1D1EFE76806002007207047FD
:10098000002208B511460323064800F0DDFA4FF0B7
:100990008051054800F0BAFB044B4FF480121A60F6
:1009A00008BD00BF00080240403802403038024015
:1009B00008B5042001F026F9064BDB684FF47A7085
:1009C000584301F017F901F029F9BDE8084001F09A
:1009D00035B900BF0C00002008B501F027F9BDE8CB
:1009E000084001F033B9000010B5042000F09EF972
:1009F000042000F093F90A4B00241C60032000F04F
:100A0000C1F9204600F0BEF900F0E8F9054B064AAE
:100A10001A60032000F08EFB044B1C6010BD00BF69
:100A20000838024004380240103000240C380240DC
:100A300000F00CBB00F0F8BA014B1860704700BF23
:100A400008ED00E00A289DBF024B03EBC0004068A0
:100A500000207047AC24000800F1006000F58040E1
:100A600000F010BB830703BF00F1006000F5804079
:100A700000680020704700000A2870B50AD80022DC
:100A80000E4C1546D3008242234404D15E680021F7
:100A9000B14204D370BD5B6801321D44F2E76818AF
:100AA000FFF7E0FF013001D10431F1E714F8320023
:100AB0000221BDE8704000F0FDBA00BFAC24000880
:100AC00010F0030308D1B0F5007F05D800F1005005
:100AD000A0F508400068704700207047014B186877
:100AE000704700BF002004E0274B2DE9F0411C684F
:100AF000264BC4F30B055E691A7E240C00274FF0C9
:100B00000C0E10330EFB07FC3CF80380A84529D1DE
:100B100063445E681A7A42F201039C4226D0B4F51F
:100B2000805F25D041F201039C4223D041F20303B0
:100B30009C4221D041F207039C4208BF3122451E4E
:100B40000D44013E0B46AB421CD216F8010F5C1C53
:100B5000A0B92C20AC42187001D29C1C5A70601AAB
:100B6000BDE8F0810137042FCCD1D4E73322E1E78F
:100B70004122DFE75A22E2E75922E0E704F8010CBC
:100B80002346E0E71C46EAE7002004E00C000020D2
:100B9000014BC058704700BF107AFF1F0128014663
:100BA00002D0022800D07047014800F0C1B900BF50
:100BB000000802400128014602D0022800D07047F8
:100BC000014800F0B3B900BF000802400128014607
:100BD00002D0022800D07047014800F0ACB900BF35
:100BE000000802402C4A2D4838B5136843F47003BE
:100BF00013602B4B6FF03F0200245A7204210F2226
:100C00009A721C72DC7200F07DFA032322460121E5
:100C1000244800F099F9032322462146214800F098
:100C2000B3F903211F4800F083F94FF080511E48AB
:100C300000F068FA1D4800F023F91D4B1D481A68A2
:100C400042F480721A601C4A116841F4004111603C
:100C50000568196821F48071196018498D4217D10F
:100C6000196841F480711960116841F40041116004
:100C700004601A6822F480721A6002210020FFF7D3
:100C800095FA2046FFF742FB0024FFF7E9FAF8E760
:100C900041F28834F1E700BF88ED00E030380240CF
:100CA0000C00002000080240403802406425000883
:100CB00000700040502800407038024007B007B074
:100CC000062822D8DFE800F004171C090E131500CF
:100CD0000F4B1868C0F3406070470D4B1868C0F3A5
:100CE000404070470A4B1868C0F340007047094BFA
:100CF000F9E7094BF7E7064B1868C0F340707047F7
:100D0000034B1868C0F3C06070470020704700BFF5
:100D100000380240703802407438024008B502467C
:100D20001046FFF7CDFF0028FAD008BD06280AD8E4
:100D3000DFE800F004181D0A0F1416000E4A1368AD
:100D400043F08073136070470B4A136843F4803399
:100D5000F8E7094A136843F00103F3E7074AF9E7A4
:100D6000074AF7E7044A136843F08053EAE7024A68
:100D7000136843F08063E5E70038024070380240B2
:100D80007438024006280AD8DFE800F004181D0A6B
:100D90000F1416000E4A136823F080731360704717
:100DA0000B4A136823F48033F8E7094A136823F0E9
:100DB0000103F3E7074AF9E7074AF7E7044A13682C
:100DC00023F08053EAE7024A136823F08063E5E7E3
:100DD000003802407038024074380240024A1368FA
:100DE00023F400231360704700380240034A13685D
:100DF00023F0030318431060704700BF0838024017
:100E0000034A136823F4604343EA4030106070479C
:100E100008380240034A136823F4E05343EA802071
:100E20001060704708380240034A136823F0F0034B
:100E300043EA0010106070470838024010B5029C69
:100E4000022C38BF022424071B0603F0706304F051
:100E5000E04452081C4300F03F0047F6C073013ADB
:100E600003EA8111044312040C4302F44032034BA1
:100E7000144344F480041C6010BD00BF04380240D9
:100E800013B504460420FFF751FF0420FFF746FF87
:100E90000020FFF7ABFF0320FFF748FF0320FFF719
:100EA0003DFFE07B002835D100F0F4FE207BFFF70A
:100EB000BBFF607BFFF7AEFFA07BFFF7A1FFA3792D
:100EC00061882279207800936379FFF7B7FF124A8F
:100ED000136843F0807313600020FFF71FFFA068C2
:100EE00000F098F80220FFF781FF0C4A1368C3F363
:100EF0008103022BFAD10A4B22691A60094B6269FD
:100F00001A60A269084B04201A6002B0BDE81040C4
:100F1000FFF738BF0120C7E7003802400838024019
:100F20004C000020500000205400002081617047D8
:100F3000090481617047436901EA030221EA030160
:100F400041EA0241816170472DE9F0410568C468BA
:100F500000264FF0030E43FA06F7FF070DD5770082
:100F60000EFA07FC01FA07F825EA0C0524EA0C043E
:100F700002FA07F748EA05053C430136102EEAD18C
:100F80000560C460BDE8F081012941680CBF1943C8
:100F90009943F0B5416081680024032643FA04F5C3
:100FA000ED0707D5650006FA05F721EA070102FA01
:100FB00005F529430134102CF0D18160F0BDF0B566
:100FC000076A466A00234FF00F0C42FA03F4E50764
:100FD00007D59D000CFA05F427EA040701FA05F588
:100FE0002F430133082BF0D14FF00F0C42FA03F4DA
:100FF000E40708D59C00203C0CFA04F526EA050617
:1010000001FA04F426430133102BEFD10762466244
:10101000F0BD0000034A136823F007031843106073
:10102000704700BF003C0240054A136843F000438C
:101030001360044B044A1A6002F188321A60704748
:10104000103C0240043C024023016745024A1368F9
:1010500043F0004313607047103C0240024A13689B
:10106000DB03FCD4704700BF0C3C0240044B196802
:1010700021F4407119601A6842EA00201860704734
:10108000103C024070B50A4C0E460546FFF7E6FFDD
:101090000220FFF7EBFF236843F0010323602E607B
:1010A000FFF7DCFF236823F00103236070BD00BF5E
:1010B000103C024037B5124C01910546FFF7CEFFB8
:1010C0000198FFF7D3FF236823F0F8032360236818
:1010D000ED00EDB21D432560236843F00203236059
:1010E000236843F480332360FFF7B8FF236823F0BD
:1010F00002032360236823F0F803236003B030BDAC
:10110000103C02400368194301607047036823EAFA
:10111000010101607047430903F1804303F50E3379
:1011200000F01F001968012202FA00F0084318605D
:1011300070470000032802D0052806D07047054AF2
:10114000136823F4802313607047034A136823F065
:101150000403F8E700380240703802402DE9F041FE
:101160001E4603680546884617469847069BC36097
:10117000079B0361BDF820308382094B0367094B4D
:10118000C366094B83660023C0E90087C0E9323398
:10119000C0E93433C0F8DC508660BDE8F08100BFA0
:1011A00035190008A5190008271A0008D0F8DC3006
:1011B0005B6A1847D0F8DC309B6A03B11847704768
:1011C00010B4D0F8DC40A468A4465DF8044B604736
:1011D00013B503680021C1820446DB7900910A46F9
:1011E000FFF7EEFFD4F8DC3000215B68204698471B
:1011F000E3691BB102B0BDE81040184702B010BD52
:1012000010B4D0F8DC40E469A4465DF8044B6047B4
:1012100010B4D0F8DC40246AA4465DF8044B604763
:10122000D0F8DC301B691847D0F8DC309B691847D0
:10123000D0F8DC305B69184710B50B7873B94C886F
:101240007F2C0CD8D0F8DC30847593F830201AB19C
:1012500049885B68C9B29847012300E0002318461B
:1012600010BDF8B50D464988044679B103680D26CE
:10127000587C0023984201D80020F8BD626806FB24
:10128000032252798A4203D00133F3E74FF0FF3350
:101290000133DBB2E3754BB9D4F8DC302046DB68B0
:1012A0009847D4F8C830ABB90120E6E70D226FF0BB
:1012B0000C0112FB031263681344002210461979D3
:1012C0009142E9D9D3F809101601715801B108709B
:1012D0000132F4E70023A3642365A365236604F1C8
:1012E000C80604F1D80756F8043B13B169882046B4
:1012F0009847B742F7D1D7E719881268012984BF08
:1013000001211980C37D2BB141680D2000FB03131F
:1013100013F8083C13700120704770B5C67D406813
:101320006FF00C050D2414FB065420448D880479BD
:10133000A5420CD201241C808B88D0F809001B0127
:101340001B5803B11B7812680120137070BD002078
:10135000FCE71988022984BF022119801168002343
:101360000B70126801205370704710B514461A882C
:10137000022A84BF02221A808988C9B2FFF754FF6B
:101380002368003818BF01201870236800225A70A3
:10139000012010BD08B589880122C9B2FFF740FFBE
:1013A000012008BD08B589880022C9B2FFF738FFBF
:1013B000012008BD70B5C27D0D241D466FF00C03E1
:1013C00014FB023344688A881C442379934219D958
:1013D000D4F809404B88160104EB021212799A42A4
:1013E00010D9A25952B11370D0F8D83013B14A882D
:1013F0008988984700232B80012070BD002BF3D0F3
:101400001046FAE70020F8E72DE9F04F4D881F4617
:101410002B0A022B89B0144611D0032B00F0ED806B
:10142000012B40F0218102682260127839888A42BB
:1014300028BF0A463A80012009B0BDE8F08FEDB21E
:1014400005EB45080369D0F80490136005EB8808A4
:101450003C8819F808500293A54209EB080328BFFD
:1014600025461946029803932A4600F099FE029BEE
:1014700019F80880641B5E19A4B200230193039B32
:101480001A79BDF804309A4204D8029BA3F802806E
:101490003D80D0E7019B019A1B010593039BD3F884
:1014A000093003EB0213D3F808A0BAF1000F14D0EF
:1014B0009AF80090A14528BFA14630464A465146B9
:1014C00000F06EFE9AF80030A4EB09044D449844F5
:1014D0004E44A4B2ADB21FFA88F800230493039BD4
:1014E000059AD3F809301344BDF8102019799142B8
:1014F00002D8019B0133C1E7049AD3F80CA015214F
:1015000001FB02F90AEB09031AF809B00093A3459D
:1015100028BFA346194630465A4600F041FE1AF845
:1015200009309844009BD3F80D10A4EB0B045D44E4
:101530005E44A4B2ADB21FFA88F8B1B1D3F811A0DD
:10154000A245A8BFA2461FFA8AF930464A4600F0D3
:1015500027FE009BD3F81130A4EB09044D449844B6
:101560004E44A4B2ADB21FFA88F84FF00009009BB8
:101570001A791FFA89F39A4202D8049B0133ADE726
:10158000009BC9EB091BD3F80930079313F80B2014
:1015900003EB0B0AA24228BF224651463046069270
:1015A00000F0FEFD079B069A13F80B30DAF80710DF
:1015B000A41A154498441644A4B2ADB21FFA88F890
:1015C000C1B1DAF80B20A242A8BF22461FFA82FB63
:1015D0005A463046CDF818B000F0E2FDDAF80B308C
:1015E000069AA4EB0B045D4498441644A4B2ADB231
:1015F0001FFA88F809F10109B9E715F0FF05066936
:101600000DD10923B3700423F37033703B88042B8E
:1016100028BF04233B800323737026600BE7836895
:10162000013D0BB3C268AA421EDD898840F209421F
:10163000914219D153F82550284600F061FE01303F
:101640004000C0B230703B88984228BF18463880AE
:1016500000233A885208013A9A42DCDD06EB430245
:10166000E95C51800133F4E70020E5E6198802299E
:1016700084BF02211980116800230B7012680120B9
:101680005370704710B5002300F1C80454F8042BC0
:101690002AB10133042BF9D14FF0FF3010BD3233A2
:1016A00040F823101046F9E710B44C78092C13D8F1
:1016B000DFE804F00E12121212100C120A05084C88
:1016C000A4465DF8044B6047064CF9E7064CF7E783
:1016D000064CF5E7064CF3E700205DF8044B704735
:1016E00063120008F91200080914000853130008D7
:1016F0003912000810B44C780A2C07D00B2C07D0F4
:1017000044B9064CA4465DF8044B6047044CF9E725
:10171000044CF7E700205DF8044B70476D16000895
:101720001B130008B513000810B44C78012C04D02A
:10173000032C08D01CB9094C09E04C885CB100208E
:101740005DF8044B70474C88002CF8D1044CA4463B
:101750005DF8044B6047034CF9E700BF6B130008CA
:1017600095130008A513000810B40C7814F0600F4E
:1017700012D104F01F04012C06D0022C08D05CB951
:101780005DF8044BFFF790BF5DF8044BFFF7B2BF65
:101790005DF8044BFFF7C8BF00205DF8044B7047AD
:1017A00010B5012204460021FFF73AFD002384F81A
:1017B0002C3010BD70B50368828FC48EDB79816BCD
:1017C000A41A9C42A8BF1C46A6B20A443346002174
:1017D0000546FFF71DFD864205D02846FFF7E0FFCE
:1017E0004FF0FF3070BDAB8F1E44AE87A0B2F9E75B
:1017F00010B50368826BD979838F994204460FD262
:101800000B460021FFF7FCFC022384F82C302368F0
:10181000A26BD979A38F0A445B1AA263A38710BD78
:101820000021FFF7EDFC94F84430002B14BF022395
:10183000032384F82C30002384F84430A387A36367
:10184000EDE72DE9F04100F1380286B00446054687
:1018500000F1200800F13C0300F14007AE6C2EB906
:10186000204606B0BDE8F041FFF77EBF087895F846
:101870004DE095F84CC000EA0E00844503D00835D1
:101880004545EBD1ECE700972046CDE904230391D1
:10189000B0470128DDE90312059BF0D806B0BDE88A
:1018A000F08138B5036983638B79CA7943EA0223EF
:1018B000838704460D46FFF7C4FF00B3EB88ABB146
:1018C000A28F21689342C9790ED932B1B2FBF1F3EC
:1018D00001FB1322B2FA82F2520984F84420204616
:1018E000BDE83840FFF784BF0022F6E71A461946E4
:1018F0002046FFF785FC042384F82C3038BD2046B1
:10190000BDE83840FFF74CBF70B5002500F1480630
:1019100056F835402CB10135042DF9D14FF0FF3088
:1019200070BD00EBC50080F84C1080F84D2083643A
:101930002046F5E770B5002500F130060446056441
:1019400001222946FFF774FC082332462946204627
:10195000FFF75EFC082804D02046BDE87040FFF782
:101960001FBFE28E2AB931462046BDE87040FFF71E
:1019700098BF94F93030002BF5DBA38A9342EBD368
:101980002369A3632368A587DB79934234BF0523CA
:10199000062384F82C302A4629462046BDE87040AC
:1019A000FFF746BC10B590F82C30062B044612D039
:1019B000072B27D0052B21D1FFF7FCFE002809DBE0
:1019C000A28FE38E9B1A2268D279934202DC06230F
:1019D00084F82C3010BDFFF7EDFE0028FADB04F18F
:1019E00030012046FFF72DFF38B100231A46194673
:1019F0002046FFF705FC0423EAE72046BDE8104037
:101A0000FFF7CEBE00231A461946FFF701FC00235C
:101A100084F82C30236C1BB104F130012046984728
:101A200000232364D6E710B590F82C30032B04462E
:101A300007D0042B0ED0022B23D1BDE81040FFF7B6
:101A4000D7BE072380F82C300022BDE81040114695
:101A5000FFF7EEBB036C13B100F13001984794F827
:101A6000303053B994F83130052B06D1618ED4F85B
:101A7000DC30C9B25B6820469847002384F82C30DC
:101A800010BDBDE81040FFF78BBE000008B540F266
:101A90008760FFF740FB254A136843F0400313605B
:101AA000234B19461A68002AFCDA1A6842F0010230
:101AB0001A600B68DB07FCD41E4B1F481B68B3F58C
:101AC000005F1E4B1A682CBF42F4041242F410222D
:101AD0001A601B4A136823F002031360A2F5FF6229
:101AE000136843F0804343F470531360154B022294
:101AF0001A60154A136843F003031360134B002266
:101B00001A60134A80231360A0F8E03052F81C3C9E
:101B100043F0010342F81C3C0E4B0F4A1A600F229F
:101B2000C3F804280122C3F8F82708BD0C000050B0
:101B3000100000503C000050EC060020380000501F
:101B4000040800501400005000080050000E00501F
:101B5000240000501800005010280480FEE7704751
:101B6000194B1A4A1A498B421AD31A4A0021934236
:101B70001BD3194A194C1368194D43F400731360B1
:101B8000536F43F470035367AC4211D3154C164D99
:101B9000AC4211D3FFF726F8144C154DAC420FD3CD
:101BA00052F8040B43F8040BDDE743F8041BDEE7AF
:101BB00054F8043B9847E7E754F8043B9847E7E7B5
:101BC00054F8043B9847E9E700000020F42500089A
:101BD00058000020F807002014ED00E0F42500086C
:101BE000F4250008F4250008F4250008F425000871
:101BF000F4250008024B20F07F401860704700BFBA
:101C000014E000E0044A136800F0040023F0040329
:101C100003431360704700BF10E000E0024A1368FE
:101C200043F002031360704710E000E0024A1368BB
:101C300023F002031360704710E000E0024A1368CB
:101C400043F001031360704710E000E0024A13689C
:101C500023F001031360704710E000E0054B4209D8
:101C600003EB820300F01F00012202FA00F018606B
:101C7000704700BF00E100E0054B420903EB82031F
:101C800000F01F00012202FA00F01860704700BF48
:101C900080E100E028B9064A136843F480431360EA
:101CA00070470128FCD1024A136803F48043F6E729
:101CB00000700040D0F8DC30DA6AD2F8003823F443
:101CC000FE6343EA0111C2F8001870472DE9F0479E
:101CD000D0F8DCE0089FDEF82C5011F07F0603F00E
:101CE0007F043ED13F2B31D9C5F80069DEF82C20A6
:101CF000C2F81049DEF82C10D1F8002942F0084251
:101D0000C1F80029DEF82C2044F0005444F40024EB
:101D1000C0F8E840C2F8104BDEF82C10D1F8002BC8
:101D200042F00842C1F8002BBEF83220DEF82C1039
:101D30009B0842EA03428A62B0F8E02013449BB257
:101D4000A0F8E030A0F8E230BDE8F0871F2B03D9FF
:101D50000122C5F80029C9E70F2B8CBF02220322FC
:101D6000F7E709064FEA461C4FEA824226D5B0F84B
:101D7000E090990806F1400849EA014A45F828A090
:101D80004944A0F8E010DEF82C1001F5116142EA98
:101D9000865241F80C400CF51061DEF82C401343DC
:101DA0000D5943F0184343F400432B430B51002FCC
:101DB000CAD00C2303FB06008766C5E706F13A018B
:101DC00005F5316544F4002440F8214045F80C4005
:101DD0000CF53061DEF82C4013430D5943F01443E9
:101DE00043F400432B430B51002FADD00C2303FBD6
:101DF0000600C766A8E7B0F8E230D0F8DC2010B5DE
:101E0000A0F8E0304FF43263D16A58580028BEBFC2
:101E1000585840F080405850A3F50070D16A44589B
:101E2000002CB8BF445803F12003BCBF44F08044E9
:101E30004450B3F5386FE7D1D36A4FF486621A6124
:101E400010BD10B5D0F8DC40E06AF1B9D0F8003927
:101E50005AB143F40013C0F800395831E26A49011D
:101E60008B5843F400138B501AE023F40013C0F88E
:101E700000395831E26A49018B5823F400138B5022
:101E8000E26A8B5843F08053EDE70B0613D501F05F
:101E90007F0348335B0122B11A5842F400121A50F2
:101EA00010BD1A5822F400121A50E16A5A5842F032
:101EB00080525A50F4E7002ACFD1DAE70A06D0F868
:101EC000DC3046BF01F07F0148315831DB6A4901FF
:101ED000C858C0F3405070470B060CD44318583113
:101EE00083F8E420D0F8DC304901DB6A22B1CA581B
:101EF00042F00062CA507047CA5842F08062F9E767
:101F0000F0B5D0F8DC60F06A01F07F04610100F503
:101F1000116045582D0316D443F40027475001F5AE
:101F20001061F76AC85940F004400134C8511D4699
:101F30002403002D01DC1846F0BDF16A52F8040BB1
:101F40006050043DF5E70023F5E737B5B0F8F850E9
:101F50009D4228BF1D46014614462B46032B1FDC1D
:101F6000A8086FF0030303FB005302EB8000A3B14A
:101F7000D1F8DC20B1F8F840D26A032C02F5805287
:101F800088BF043C126801928CBFA4B20024A1F85F
:101F9000F8401A4601A900F003F9284603B030BD05
:101FA000D1F8DC00C06A00F58050043B006844F8BA
:101FB000040BB1F8F8000438A1F8F800CEE7D0F827
:101FC000DC30DA6A2DE9F047556915F4005604460D
:101FD00009D05B8E4FF400515161BDE8F047A0F885
:101FE000E030FFF7F5B800F168084FF00C094FF04A
:101FF000010AD4F8DC30DB6A770103F60813DB59F9
:10200000DA070ED509FB06F358F8033013B1F1B225
:1020100020469847D4F8DC30DB6A03F6081343F80F
:1020200007A00136042EE4D1EB0648D5D4F8DC0035
:10203000C36A1A6A02F4F016B6F5C02F02F00F0157
:1020400002D0B6F5002F18D101F13A054A0103F587
:10205000316354F825509D502144C56A91F8E4102D
:1020600002F5306300295A5914BF4FF008414FF070
:1020700004410A435A51BDE8F087B6F5802F73D06A
:10208000B6F5402FF7D14E0103F51167BF593F0355
:1020900040D4022001EB410303441A33C2F30A1275
:1020A00054F82330A4F8F8200BB120469847B4F830
:1020B000F8100023994259DC0023A4F8F8302A05CF
:1020C00008D5236A03B19847D4F8DC30DB6A4FF4B3
:1020D00000625A61002D08DA636A03B19847D4F8A8
:1020E000DC30DB6A4FF000425A612B0707D5A36A48
:1020F00003B19847D4F8DC30DB6A08225A61D4F87F
:10210000DC30A26ADB6A002A38D09A6942F0080201
:102110009A61B0E706F5106C53F80C7047F0006751
:1021200043F80C70C76A07F608133344D3F800E08D
:102130001EF0400FFAD05CF807309B0DD7F810E086
:10214000BEF1000FFADA9B0103F4707343F0200331
:102150003B61C36A03F5116300279F51C36A1033C3
:1021600018688006FCD494E7012093E7D4F8DC20BB
:10217000D26A02F58052043312689BE79A6922F012
:102180000802C5E7D0F8DC30DB6AD3F8042821B1B7
:1021900042F00202C3F80428704722F00202F9E775
:1021A000844641EA000313F003036DD1403A41D362
:1021B00051F8043B40F8043B51F8043B40F8043B21
:1021C00051F8043B40F8043B51F8043B40F8043B11
:1021D00051F8043B40F8043B51F8043B40F8043B01
:1021E00051F8043B40F8043B51F8043B40F8043BF1
:1021F00051F8043B40F8043B51F8043B40F8043BE1
:1022000051F8043B40F8043B51F8043B40F8043BD0
:1022100051F8043B40F8043B51F8043B40F8043BC0
:1022200051F8043B40F8043B51F8043B40F8043BB0
:10223000403ABDD2303211D351F8043B40F8043B50
:1022400051F8043B40F8043B51F8043B40F8043B90
:1022500051F8043B40F8043B103AEDD20C3205D360
:1022600051F8043B40F8043B043AF9D2043208D058
:10227000D2071CBF11F8013B00F8013B01D30B88CA
:1022800003806046704700BF082A13D38B078DD0A8
:1022900010F003038AD0C3F10403D21ADB071CBF7A
:1022A00011F8013B00F8013B80D331F8023B20F8E4
:1022B000023B7BE7043AD9D3013A11F8013B00F81D
:1022C000013BF9D20B7803704B7843708B788370A5
:1022D00060467047000000000000000000000000A1
:1022E00000000000000000000000000000000000EE
:1022F00000000000000000000000000000000000DE
:1023000090F800F06DE9024520F007016FF0000C35
:1023100010F0070491F820F040F049804FF00004DD
:102320006FF00700D1E9002391F840F000F10800B8
:1023300082FA4CF2A4FA8CF283FA4CF3A2FA8CF3F0
:102340004BBBD1E9022382FA4CF200F10800A4FA57
:102350008CF283FA4CF3A2FA8CF3E3B9D1E90423AB
:1023600082FA4CF200F10800A4FA8CF283FA4CF3E2
:10237000A2FA8CF37BB9D1E9062301F1200182FA9C
:102380004CF200F10800A4FA8CF283FA4CF3A2FAA2
:102390008CF3002BC6D0002A04BF04301A4612BAB0
:1023A000B2FA82F2FDE8024500EBD2007047D1E9B3
:1023B000002304F00305C4F100004FEAC50514F042
:1023C000040F91F840F00CFA05F562EA05021CBF13
:1023D00063EA050362464FF00004A9E70500000028
:1023E00000C201000000080902000002010080FA9A
:1023F000082400081201000202000040AC2616006A
:1024000001010102030100000000000001000000C2
:10241000000000003D240008000000000100000052
:10242000000000002824000809040100020A00003E
:1024300000652400080000000000000000090400FE
:102440000001020201008324000852240008130046
:1024500000000524001001052401000104240200ED
:1024600005240600010705010240000100000000EC
:10247000000000000705820240000100000000008B
:10248000000000070583031000FF000000000000AB
:1024900000004A474D45005068616E746F6D2D50C5
:1024A0006F77657220424C00300000000100000090
:1024B0000040000002000000004000000300000097
:1024C00000400000040000000000010005000000C2
:1024D00000000200060000000000020007000000EB
:1024E00000000200080000000000020009000000D7
:1024F000000002000A000000000002000B000000C3
:102500000000020010000000004000001100000068
:102510000040000012000000004000001300000016
:102520000040000014000000000001001500000041
:10253000000002001600000000000200170000006A
:102540000000020018000000000002001900000056
:10255000000002001A000000000002001B00000042
:10256000000002000C0050010207000005060000F8
:10257000000504000000000080DE800200BD0105AF
:10258000012033000010410001105A0003105900CF
:102590000710310053544D3332463F3F3F005354F0
:1025A0004D3332463430780053544D333246343252
:1025B000780053544D3332463434365858000000B6
:1025C0008D1A0008B51C0008CD1C0008F71D000876
:1025D000431E0008D91E0008BD1E0008011F000888
:1025E0004B1F0008BF1F0008852100080000005095
:0425F0000100800066
:1025F4009224000897240008A82400080E00000074
:102604000000000000000000A8000000000000001E
:10261400942500083F000000130400009E250008D4
:102624003F00000019040000A82500083F00000036
:1026340021040000B22500083F0000000024F4003B
:082644000024F4000024F4005E
:0400000508000000EF
:00000001FF
